{
  "_format": "hh-sol-artifact-1",
  "contractName": "Strings",
  "sourceName": "contracts/helpers/String.sol",
  "abi": [
    {
      "inputs": [
        {
          "internalType": "string",
          "name": "_str",
          "type": "string"
        }
      ],
      "name": "getLength",
      "outputs": [
        {
          "internalType": "uint256",
          "name": "",
          "type": "uint256"
        }
      ],
      "stateMutability": "pure",
      "type": "function"
    }
  ],
  "bytecode": "0x608060405234801561001057600080fd5b5061027d806100206000396000f3fe608060405234801561001057600080fd5b506004361061002b5760003560e01c80636981b5f414610030575b600080fd5b61004a600480360381019061004591906101ca565b610060565b604051610057919061022c565b60405180910390f35b6000808290508051915050919050565b6000604051905090565b600080fd5b600080fd5b600080fd5b600080fd5b6000601f19601f8301169050919050565b7f4e487b7100000000000000000000000000000000000000000000000000000000600052604160045260246000fd5b6100d78261008e565b810181811067ffffffffffffffff821117156100f6576100f561009f565b5b80604052505050565b6000610109610070565b905061011582826100ce565b919050565b600067ffffffffffffffff8211156101355761013461009f565b5b61013e8261008e565b9050602081019050919050565b82818337600083830152505050565b600061016d6101688461011a565b6100ff565b90508281526020810184848401111561018957610188610089565b5b61019484828561014b565b509392505050565b600082601f8301126101b1576101b0610084565b5b81356101c184826020860161015a565b91505092915050565b6000602082840312156101e0576101df61007a565b5b600082013567ffffffffffffffff8111156101fe576101fd61007f565b5b61020a8482850161019c565b91505092915050565b6000819050919050565b61022681610213565b82525050565b6000602082019050610241600083018461021d565b9291505056fea2646970667358221220c163062f14af9c877d64f0dbdb0d0e94eab5aa1cb8e1ad057201fff615b60c0364736f6c63430008180033",
  "linkReferences": {},
  "deployedLinkReferences": {}
}