{"contracts/NFT.sol":{"NFT":{"abi":[{"anonymous":false,"inputs":[{"indexed":false,"internalType":"address","name":"_from","type":"address"},{"indexed":false,"internalType":"address","name":"_to","type":"address"},{"indexed":false,"internalType":"uint256","name":"_tokenId","type":"uint256"}],"name":"Transfer","type":"event"},{"inputs":[{"internalType":"address","name":"_owner","type":"address"}],"name":"_balanceOf","outputs":[{"internalType":"uint256","name":"","type":"uint256"}],"stateMutability":"view","type":"function"},{"inputs":[],"name":"_getContractAddress","outputs":[{"internalType":"address","name":"","type":"address"}],"stateMutability":"view","type":"function"},{"inputs":[{"internalType":"address","name":"_own","type":"address"}],"name":"_getTokens","outputs":[{"components":[{"internalType":"uint256","name":"_id","type":"uint256"},{"internalType":"address","name":"_owner","type":"address"},{"internalType":"string","name":"_asset","type":"string"},{"internalType":"string","name":"_category","type":"string"},{"internalType":"string","name":"_type","type":"string"},{"internalType":"string","name":"_name","type":"string"}],"internalType":"struct TokenType[]","name":"","type":"tuple[]"}],"stateMutability":"view","type":"function"},{"inputs":[{"internalType":"string","name":"_asset","type":"string"},{"internalType":"string","name":"_name","type":"string"}],"name":"_isExists","outputs":[{"internalType":"bool","name":"","type":"bool"}],"stateMutability":"view","type":"function"},{"inputs":[{"internalType":"string","name":"_name","type":"string"},{"internalType":"string","name":"_asset","type":"string"},{"internalType":"string","name":"_category","type":"string"},{"internalType":"string","name":"_type","type":"string"},{"internalType":"address","name":"_sender","type":"address"}],"name":"_mint","outputs":[{"internalType":"uint256","name":"","type":"uint256"}],"stateMutability":"nonpayable","type":"function"},{"inputs":[{"internalType":"uint256","name":"_id","type":"uint256"}],"name":"_ownerOf","outputs":[{"components":[{"internalType":"uint256","name":"_id","type":"uint256"},{"internalType":"address","name":"_owner","type":"address"},{"internalType":"string","name":"_asset","type":"string"},{"internalType":"string","name":"_category","type":"string"},{"internalType":"string","name":"_type","type":"string"},{"internalType":"string","name":"_name","type":"string"}],"internalType":"struct TokenType","name":"","type":"tuple"}],"stateMutability":"view","type":"function"},{"inputs":[{"internalType":"address","name":"_from","type":"address"},{"internalType":"address","name":"_to","type":"address"},{"internalType":"uint256","name":"_tokenId","type":"uint256"}],"name":"_transferFrom","outputs":[],"stateMutability":"nonpayable","type":"function"},{"inputs":[{"internalType":"string","name":"_str","type":"string"}],"name":"getLength","outputs":[{"internalType":"uint256","name":"","type":"uint256"}],"stateMutability":"pure","type":"function"}],"evm":{"bytecode":{"linkReferences":{},"object":"60806040526000805534801561001457600080fd5b50611de1806100246000396000f3fe608060405234801561001057600080fd5b50600436106100885760003560e01c806381d19e351161005b57806381d19e351461014d578063cb7125351461017d578063cca3e83214610199578063ed499474146101c957610088565b80633031afb81461008d57806338350541146100bd57806342408284146100ed5780636981b5f41461011d575b600080fd5b6100a760048036038101906100a29190611056565b6101e7565b6040516100b4919061129b565b60405180910390f35b6100d760048036038101906100d291906112e9565b610641565b6040516100e491906113b4565b60405180910390f35b6101076004803603810190610102919061150b565b610916565b6040516101149190611605565b60405180910390f35b61013760048036038101906101329190611620565b610c78565b6040516101449190611605565b60405180910390f35b61016760048036038101906101629190611669565b610c88565b60405161017491906116fc565b60405180910390f35b61019760048036038101906101929190611717565b610cf1565b005b6101b360048036038101906101ae9190611056565b610f47565b6040516101c09190611605565b60405180910390f35b6101d1610f90565b6040516101de9190611779565b60405180910390f35b606060006101f483610f47565b90506000810361025b57600067ffffffffffffffff811115610219576102186113e0565b5b60405190808252806020026020018201604052801561025257816020015b61023f610f98565b8152602001906001900390816102375790505b5091505061063c565b60008167ffffffffffffffff811115610277576102766113e0565b5b6040519080825280602002602001820160405280156102b057816020015b61029d610f98565b8152602001906001900390816102955790505b509050600080600190505b6000548111610634578573ffffffffffffffffffffffffffffffffffffffff166003600083815260200190815260200160002060010160009054906101000a900473ffffffffffffffffffffffffffffffffffffffff1673ffffffffffffffffffffffffffffffffffffffff160361062157600360008281526020019081526020016000206040518060c0016040529081600082015481526020016001820160009054906101000a900473ffffffffffffffffffffffffffffffffffffffff1673ffffffffffffffffffffffffffffffffffffffff1673ffffffffffffffffffffffffffffffffffffffff1681526020016002820180546103bb906117c3565b80601f01602080910402602001604051908101604052809291908181526020018280546103e7906117c3565b80156104345780601f1061040957610100808354040283529160200191610434565b820191906000526020600020905b81548152906001019060200180831161041757829003601f168201915b5050505050815260200160038201805461044d906117c3565b80601f0160208091040260200160405190810160405280929190818152602001828054610479906117c3565b80156104c65780601f1061049b576101008083540402835291602001916104c6565b820191906000526020600020905b8154815290600101906020018083116104a957829003601f168201915b505050505081526020016004820180546104df906117c3565b80601f016020809104026020016040519081016040528092919081815260200182805461050b906117c3565b80156105585780601f1061052d57610100808354040283529160200191610558565b820191906000526020600020905b81548152906001019060200180831161053b57829003601f168201915b50505050508152602001600582018054610571906117c3565b80601f016020809104026020016040519081016040528092919081815260200182805461059d906117c3565b80156105ea5780601f106105bf576101008083540402835291602001916105ea565b820191906000526020600020905b8154815290600101906020018083116105cd57829003601f168201915b505050505081525050838381518110610606576106056117f4565b5b602002602001018190525060018261061e9190611852565b91505b808061062c90611886565b9150506102bb565b508193505050505b919050565b610649610f98565b600360008381526020019081526020016000206040518060c0016040529081600082015481526020016001820160009054906101000a900473ffffffffffffffffffffffffffffffffffffffff1673ffffffffffffffffffffffffffffffffffffffff1673ffffffffffffffffffffffffffffffffffffffff1681526020016002820180546106d7906117c3565b80601f0160208091040260200160405190810160405280929190818152602001828054610703906117c3565b80156107505780601f1061072557610100808354040283529160200191610750565b820191906000526020600020905b81548152906001019060200180831161073357829003601f168201915b50505050508152602001600382018054610769906117c3565b80601f0160208091040260200160405190810160405280929190818152602001828054610795906117c3565b80156107e25780601f106107b7576101008083540402835291602001916107e2565b820191906000526020600020905b8154815290600101906020018083116107c557829003601f168201915b505050505081526020016004820180546107fb906117c3565b80601f0160208091040260200160405190810160405280929190818152602001828054610827906117c3565b80156108745780601f1061084957610100808354040283529160200191610874565b820191906000526020600020905b81548152906001019060200180831161085757829003601f168201915b5050505050815260200160058201805461088d906117c3565b80601f01602080910402602001604051908101604052809291908181526020018280546108b9906117c3565b80156109065780601f106108db57610100808354040283529160200191610906565b820191906000526020600020905b8154815290600101906020018083116108e957829003601f168201915b5050505050815250509050919050565b6000600160008082825461092a9190611852565b92505081905550600285604051610941919061190a565b908152602001604051809103902060009054906101000a900460ff161580156109935750600185604051610975919061190a565b908152602001604051809103902060009054906101000a900460ff16155b6109d2576040517f08c379a00000000000000000000000000000000000000000000000000000000081526004016109c99061197e565b60405180910390fd5b600180876040516109e3919061190a565b908152602001604051809103902060006101000a81548160ff0219169083151502179055506001600286604051610a1a919061190a565b908152602001604051809103902060006101000a81548160ff0219169083151502179055506040518060c0016040528060005481526020018373ffffffffffffffffffffffffffffffffffffffff1681526020018681526020018581526020018481526020018781525060036000805481526020019081526020016000206000820151816000015560208201518160010160006101000a81548173ffffffffffffffffffffffffffffffffffffffff021916908373ffffffffffffffffffffffffffffffffffffffff1602179055506040820151816002019081610afe9190611b4a565b506060820151816003019081610b149190611b4a565b506080820151816004019081610b2a9190611b4a565b5060a0820151816005019081610b409190611b4a565b509050507fddf252ad1be2c89b69c2b068fc378daa952ba7f163c4a11628f55a4df523b3ef600083600054604051610b7a93929190611c1c565b60405180910390a16000600460008473ffffffffffffffffffffffffffffffffffffffff1673ffffffffffffffffffffffffffffffffffffffff1681526020019081526020016000205403610c12576001600460008473ffffffffffffffffffffffffffffffffffffffff1673ffffffffffffffffffffffffffffffffffffffff168152602001908152602001600020819055610c69565b6001600460008473ffffffffffffffffffffffffffffffffffffffff1673ffffffffffffffffffffffffffffffffffffffff1681526020019081526020016000206000828254610c629190611852565b9250508190555b50600054905095945050505050565b6000808290508051915050919050565b6000600283604051610c9a919061190a565b908152602001604051809103902060009054906101000a900460ff1680610ce95750600182604051610ccc919061190a565b908152602001604051809103902060009054906101000a900460ff165b905092915050565b6003600082815260200190815260200160002060010160009054906101000a900473ffffffffffffffffffffffffffffffffffffffff1673ffffffffffffffffffffffffffffffffffffffff168373ffffffffffffffffffffffffffffffffffffffff1614610d95576040517f08c379a0000000000000000000000000000000000000000000000000000000008152600401610d8c90611cc5565b60405180910390fd5b600073ffffffffffffffffffffffffffffffffffffffff168273ffffffffffffffffffffffffffffffffffffffff1603610e04576040517f08c379a0000000000000000000000000000000000000000000000000000000008152600401610dfb90611d57565b60405180910390fd5b816003600083815260200190815260200160002060010160006101000a81548173ffffffffffffffffffffffffffffffffffffffff021916908373ffffffffffffffffffffffffffffffffffffffff1602179055506001600460008573ffffffffffffffffffffffffffffffffffffffff1673ffffffffffffffffffffffffffffffffffffffff1681526020019081526020016000206000828254610ea99190611d77565b925050819055506001600460008473ffffffffffffffffffffffffffffffffffffffff1673ffffffffffffffffffffffffffffffffffffffff1681526020019081526020016000206000828254610f009190611852565b925050819055507fddf252ad1be2c89b69c2b068fc378daa952ba7f163c4a11628f55a4df523b3ef838383604051610f3a93929190611c1c565b60405180910390a1505050565b6000600460008373ffffffffffffffffffffffffffffffffffffffff1673ffffffffffffffffffffffffffffffffffffffff168152602001908152602001600020549050919050565b600030905090565b6040518060c0016040528060008152602001600073ffffffffffffffffffffffffffffffffffffffff168152602001606081526020016060815260200160608152602001606081525090565b6000604051905090565b600080fd5b600080fd5b600073ffffffffffffffffffffffffffffffffffffffff82169050919050565b600061102382610ff8565b9050919050565b61103381611018565b811461103e57600080fd5b50565b6000813590506110508161102a565b92915050565b60006020828403121561106c5761106b610fee565b5b600061107a84828501611041565b91505092915050565b600081519050919050565b600082825260208201905092915050565b6000819050602082019050919050565b6000819050919050565b6110c2816110af565b82525050565b6110d181611018565b82525050565b600081519050919050565b600082825260208201905092915050565b60005b838110156111115780820151818401526020810190506110f6565b60008484015250505050565b6000601f19601f8301169050919050565b6000611139826110d7565b61114381856110e2565b93506111538185602086016110f3565b61115c8161111d565b840191505092915050565b600060c08301600083015161117f60008601826110b9565b50602083015161119260208601826110c8565b50604083015184820360408601526111aa828261112e565b915050606083015184820360608601526111c4828261112e565b915050608083015184820360808601526111de828261112e565b91505060a083015184820360a08601526111f8828261112e565b9150508091505092915050565b60006112118383611167565b905092915050565b6000602082019050919050565b600061123182611083565b61123b818561108e565b93508360208202850161124d8561109f565b8060005b85811015611289578484038952815161126a8582611205565b945061127583611219565b925060208a01995050600181019050611251565b50829750879550505050505092915050565b600060208201905081810360008301526112b58184611226565b905092915050565b6112c6816110af565b81146112d157600080fd5b50565b6000813590506112e3816112bd565b92915050565b6000602082840312156112ff576112fe610fee565b5b600061130d848285016112d4565b91505092915050565b600060c08301600083015161132e60008601826110b9565b50602083015161134160208601826110c8565b5060408301518482036040860152611359828261112e565b91505060608301518482036060860152611373828261112e565b9150506080830151848203608086015261138d828261112e565b91505060a083015184820360a08601526113a7828261112e565b9150508091505092915050565b600060208201905081810360008301526113ce8184611316565b905092915050565b600080fd5b600080fd5b7f4e487b7100000000000000000000000000000000000000000000000000000000600052604160045260246000fd5b6114188261111d565b810181811067ffffffffffffffff82111715611437576114366113e0565b5b80604052505050565b600061144a610fe4565b9050611456828261140f565b919050565b600067ffffffffffffffff821115611476576114756113e0565b5b61147f8261111d565b9050602081019050919050565b82818337600083830152505050565b60006114ae6114a98461145b565b611440565b9050828152602081018484840111156114ca576114c96113db565b5b6114d584828561148c565b509392505050565b600082601f8301126114f2576114f16113d6565b5b813561150284826020860161149b565b91505092915050565b600080600080600060a0868803121561152757611526610fee565b5b600086013567ffffffffffffffff81111561154557611544610ff3565b5b611551888289016114dd565b955050602086013567ffffffffffffffff81111561157257611571610ff3565b5b61157e888289016114dd565b945050604086013567ffffffffffffffff81111561159f5761159e610ff3565b5b6115ab888289016114dd565b935050606086013567ffffffffffffffff8111156115cc576115cb610ff3565b5b6115d8888289016114dd565b92505060806115e988828901611041565b9150509295509295909350565b6115ff816110af565b82525050565b600060208201905061161a60008301846115f6565b92915050565b60006020828403121561163657611635610fee565b5b600082013567ffffffffffffffff81111561165457611653610ff3565b5b611660848285016114dd565b91505092915050565b600080604083850312156116805761167f610fee565b5b600083013567ffffffffffffffff81111561169e5761169d610ff3565b5b6116aa858286016114dd565b925050602083013567ffffffffffffffff8111156116cb576116ca610ff3565b5b6116d7858286016114dd565b9150509250929050565b60008115159050919050565b6116f6816116e1565b82525050565b600060208201905061171160008301846116ed565b92915050565b6000806000606084860312156117305761172f610fee565b5b600061173e86828701611041565b935050602061174f86828701611041565b9250506040611760868287016112d4565b9150509250925092565b61177381611018565b82525050565b600060208201905061178e600083018461176a565b92915050565b7f4e487b7100000000000000000000000000000000000000000000000000000000600052602260045260246000fd5b600060028204905060018216806117db57607f821691505b6020821081036117ee576117ed611794565b5b50919050565b7f4e487b7100000000000000000000000000000000000000000000000000000000600052603260045260246000fd5b7f4e487b7100000000000000000000000000000000000000000000000000000000600052601160045260246000fd5b600061185d826110af565b9150611868836110af565b92508282019050808211156118805761187f611823565b5b92915050565b6000611891826110af565b91507fffffffffffffffffffffffffffffffffffffffffffffffffffffffffffffffff82036118c3576118c2611823565b5b600182019050919050565b600081905092915050565b60006118e4826110d7565b6118ee81856118ce565b93506118fe8185602086016110f3565b80840191505092915050565b600061191682846118d9565b915081905092915050565b600082825260208201905092915050565b7f4475626c6963617465204e465400000000000000000000000000000000000000600082015250565b6000611968600d83611921565b915061197382611932565b602082019050919050565b600060208201905081810360008301526119978161195b565b9050919050565b60008190508160005260206000209050919050565b60006020601f8301049050919050565b600082821b905092915050565b600060088302611a007fffffffffffffffffffffffffffffffffffffffffffffffffffffffffffffffff826119c3565b611a0a86836119c3565b95508019841693508086168417925050509392505050565b6000819050919050565b6000611a47611a42611a3d846110af565b611a22565b6110af565b9050919050565b6000819050919050565b611a6183611a2c565b611a75611a6d82611a4e565b8484546119d0565b825550505050565b600090565b611a8a611a7d565b611a95818484611a58565b505050565b5b81811015611ab957611aae600082611a82565b600181019050611a9b565b5050565b601f821115611afe57611acf8161199e565b611ad8846119b3565b81016020851015611ae7578190505b611afb611af3856119b3565b830182611a9a565b50505b505050565b600082821c905092915050565b6000611b2160001984600802611b03565b1980831691505092915050565b6000611b3a8383611b10565b9150826002028217905092915050565b611b53826110d7565b67ffffffffffffffff811115611b6c57611b6b6113e0565b5b611b7682546117c3565b611b81828285611abd565b600060209050601f831160018114611bb45760008415611ba2578287015190505b611bac8582611b2e565b865550611c14565b601f198416611bc28661199e565b60005b82811015611bea57848901518255600182019150602085019450602081019050611bc5565b86831015611c075784890151611c03601f891682611b10565b8355505b6001600288020188555050505b505050505050565b6000606082019050611c31600083018661176a565b611c3e602083018561176a565b611c4b60408301846115f6565b949350505050565b7f5468652066726f6d206164647265737320646f6573206e6f74206f776e20746860008201527f6520746f6b656e00000000000000000000000000000000000000000000000000602082015250565b6000611caf602783611921565b9150611cba82611c53565b604082019050919050565b60006020820190508181036000830152611cde81611ca2565b9050919050565b7f43616e6e6f74207472616e7366657220746f20746865207a65726f206164647260008201527f6573730000000000000000000000000000000000000000000000000000000000602082015250565b6000611d41602383611921565b9150611d4c82611ce5565b604082019050919050565b60006020820190508181036000830152611d7081611d34565b9050919050565b6000611d82826110af565b9150611d8d836110af565b9250828203905081811115611da557611da4611823565b5b9291505056fea26469706673582212209a31b737fed9f95d9a4cfdfbbf164b3c36f874db2454697fb0e6aa0aae153b0b64736f6c63430008180033","opcodes":"PUSH1 0x80 PUSH1 0x40 MSTORE PUSH1 0x0 DUP1 SSTORE CALLVALUE DUP1 ISZERO PUSH2 0x14 JUMPI PUSH1 0x0 DUP1 REVERT JUMPDEST POP PUSH2 0x1DE1 DUP1 PUSH2 0x24 PUSH1 0x0 CODECOPY PUSH1 0x0 RETURN INVALID PUSH1 0x80 PUSH1 0x40 MSTORE CALLVALUE DUP1 ISZERO PUSH2 0x10 JUMPI PUSH1 0x0 DUP1 REVERT JUMPDEST POP PUSH1 0x4 CALLDATASIZE LT PUSH2 0x88 JUMPI PUSH1 0x0 CALLDATALOAD PUSH1 0xE0 SHR DUP1 PUSH4 0x81D19E35 GT PUSH2 0x5B JUMPI DUP1 PUSH4 0x81D19E35 EQ PUSH2 0x14D JUMPI DUP1 PUSH4 0xCB712535 EQ PUSH2 0x17D JUMPI DUP1 PUSH4 0xCCA3E832 EQ PUSH2 0x199 JUMPI DUP1 PUSH4 0xED499474 EQ PUSH2 0x1C9 JUMPI PUSH2 0x88 JUMP JUMPDEST DUP1 PUSH4 0x3031AFB8 EQ PUSH2 0x8D JUMPI DUP1 PUSH4 0x38350541 EQ PUSH2 0xBD JUMPI DUP1 PUSH4 0x42408284 EQ PUSH2 0xED JUMPI DUP1 PUSH4 0x6981B5F4 EQ PUSH2 0x11D JUMPI JUMPDEST PUSH1 0x0 DUP1 REVERT JUMPDEST PUSH2 0xA7 PUSH1 0x4 DUP1 CALLDATASIZE SUB DUP2 ADD SWAP1 PUSH2 0xA2 SWAP2 SWAP1 PUSH2 0x1056 JUMP JUMPDEST PUSH2 0x1E7 JUMP JUMPDEST PUSH1 0x40 MLOAD PUSH2 0xB4 SWAP2 SWAP1 PUSH2 0x129B JUMP JUMPDEST PUSH1 0x40 MLOAD DUP1 SWAP2 SUB SWAP1 RETURN JUMPDEST PUSH2 0xD7 PUSH1 0x4 DUP1 CALLDATASIZE SUB DUP2 ADD SWAP1 PUSH2 0xD2 SWAP2 SWAP1 PUSH2 0x12E9 JUMP JUMPDEST PUSH2 0x641 JUMP JUMPDEST PUSH1 0x40 MLOAD PUSH2 0xE4 SWAP2 SWAP1 PUSH2 0x13B4 JUMP JUMPDEST PUSH1 0x40 MLOAD DUP1 SWAP2 SUB SWAP1 RETURN JUMPDEST PUSH2 0x107 PUSH1 0x4 DUP1 CALLDATASIZE SUB DUP2 ADD SWAP1 PUSH2 0x102 SWAP2 SWAP1 PUSH2 0x150B JUMP JUMPDEST PUSH2 0x916 JUMP JUMPDEST PUSH1 0x40 MLOAD PUSH2 0x114 SWAP2 SWAP1 PUSH2 0x1605 JUMP JUMPDEST PUSH1 0x40 MLOAD DUP1 SWAP2 SUB SWAP1 RETURN JUMPDEST PUSH2 0x137 PUSH1 0x4 DUP1 CALLDATASIZE SUB DUP2 ADD SWAP1 PUSH2 0x132 SWAP2 SWAP1 PUSH2 0x1620 JUMP JUMPDEST PUSH2 0xC78 JUMP JUMPDEST PUSH1 0x40 MLOAD PUSH2 0x144 SWAP2 SWAP1 PUSH2 0x1605 JUMP JUMPDEST PUSH1 0x40 MLOAD DUP1 SWAP2 SUB SWAP1 RETURN JUMPDEST PUSH2 0x167 PUSH1 0x4 DUP1 CALLDATASIZE SUB DUP2 ADD SWAP1 PUSH2 0x162 SWAP2 SWAP1 PUSH2 0x1669 JUMP JUMPDEST PUSH2 0xC88 JUMP JUMPDEST PUSH1 0x40 MLOAD PUSH2 0x174 SWAP2 SWAP1 PUSH2 0x16FC JUMP JUMPDEST PUSH1 0x40 MLOAD DUP1 SWAP2 SUB SWAP1 RETURN JUMPDEST PUSH2 0x197 PUSH1 0x4 DUP1 CALLDATASIZE SUB DUP2 ADD SWAP1 PUSH2 0x192 SWAP2 SWAP1 PUSH2 0x1717 JUMP JUMPDEST PUSH2 0xCF1 JUMP JUMPDEST STOP JUMPDEST PUSH2 0x1B3 PUSH1 0x4 DUP1 CALLDATASIZE SUB DUP2 ADD SWAP1 PUSH2 0x1AE SWAP2 SWAP1 PUSH2 0x1056 JUMP JUMPDEST PUSH2 0xF47 JUMP JUMPDEST PUSH1 0x40 MLOAD PUSH2 0x1C0 SWAP2 SWAP1 PUSH2 0x1605 JUMP JUMPDEST PUSH1 0x40 MLOAD DUP1 SWAP2 SUB SWAP1 RETURN JUMPDEST PUSH2 0x1D1 PUSH2 0xF90 JUMP JUMPDEST PUSH1 0x40 MLOAD PUSH2 0x1DE SWAP2 SWAP1 PUSH2 0x1779 JUMP JUMPDEST PUSH1 0x40 MLOAD DUP1 SWAP2 SUB SWAP1 RETURN JUMPDEST PUSH1 0x60 PUSH1 0x0 PUSH2 0x1F4 DUP4 PUSH2 0xF47 JUMP JUMPDEST SWAP1 POP PUSH1 0x0 DUP2 SUB PUSH2 0x25B JUMPI PUSH1 0x0 PUSH8 0xFFFFFFFFFFFFFFFF DUP2 GT ISZERO PUSH2 0x219 JUMPI PUSH2 0x218 PUSH2 0x13E0 JUMP JUMPDEST JUMPDEST PUSH1 0x40 MLOAD SWAP1 DUP1 DUP3 MSTORE DUP1 PUSH1 0x20 MUL PUSH1 0x20 ADD DUP3 ADD PUSH1 0x40 MSTORE DUP1 ISZERO PUSH2 0x252 JUMPI DUP2 PUSH1 0x20 ADD JUMPDEST PUSH2 0x23F PUSH2 0xF98 JUMP JUMPDEST DUP2 MSTORE PUSH1 0x20 ADD SWAP1 PUSH1 0x1 SWAP1 SUB SWAP1 DUP2 PUSH2 0x237 JUMPI SWAP1 POP JUMPDEST POP SWAP2 POP POP PUSH2 0x63C JUMP JUMPDEST PUSH1 0x0 DUP2 PUSH8 0xFFFFFFFFFFFFFFFF DUP2 GT ISZERO PUSH2 0x277 JUMPI PUSH2 0x276 PUSH2 0x13E0 JUMP JUMPDEST JUMPDEST PUSH1 0x40 MLOAD SWAP1 DUP1 DUP3 MSTORE DUP1 PUSH1 0x20 MUL PUSH1 0x20 ADD DUP3 ADD PUSH1 0x40 MSTORE DUP1 ISZERO PUSH2 0x2B0 JUMPI DUP2 PUSH1 0x20 ADD JUMPDEST PUSH2 0x29D PUSH2 0xF98 JUMP JUMPDEST DUP2 MSTORE PUSH1 0x20 ADD SWAP1 PUSH1 0x1 SWAP1 SUB SWAP1 DUP2 PUSH2 0x295 JUMPI SWAP1 POP JUMPDEST POP SWAP1 POP PUSH1 0x0 DUP1 PUSH1 0x1 SWAP1 POP JUMPDEST PUSH1 0x0 SLOAD DUP2 GT PUSH2 0x634 JUMPI DUP6 PUSH20 0xFFFFFFFFFFFFFFFFFFFFFFFFFFFFFFFFFFFFFFFF AND PUSH1 0x3 PUSH1 0x0 DUP4 DUP2 MSTORE PUSH1 0x20 ADD SWAP1 DUP2 MSTORE PUSH1 0x20 ADD PUSH1 0x0 KECCAK256 PUSH1 0x1 ADD PUSH1 0x0 SWAP1 SLOAD SWAP1 PUSH2 0x100 EXP SWAP1 DIV PUSH20 0xFFFFFFFFFFFFFFFFFFFFFFFFFFFFFFFFFFFFFFFF AND PUSH20 0xFFFFFFFFFFFFFFFFFFFFFFFFFFFFFFFFFFFFFFFF AND SUB PUSH2 0x621 JUMPI PUSH1 0x3 PUSH1 0x0 DUP3 DUP2 MSTORE PUSH1 0x20 ADD SWAP1 DUP2 MSTORE PUSH1 0x20 ADD PUSH1 0x0 KECCAK256 PUSH1 0x40 MLOAD DUP1 PUSH1 0xC0 ADD PUSH1 0x40 MSTORE SWAP1 DUP2 PUSH1 0x0 DUP3 ADD SLOAD DUP2 MSTORE PUSH1 0x20 ADD PUSH1 0x1 DUP3 ADD PUSH1 0x0 SWAP1 SLOAD SWAP1 PUSH2 0x100 EXP SWAP1 DIV PUSH20 0xFFFFFFFFFFFFFFFFFFFFFFFFFFFFFFFFFFFFFFFF AND PUSH20 0xFFFFFFFFFFFFFFFFFFFFFFFFFFFFFFFFFFFFFFFF AND PUSH20 0xFFFFFFFFFFFFFFFFFFFFFFFFFFFFFFFFFFFFFFFF AND DUP2 MSTORE PUSH1 0x20 ADD PUSH1 0x2 DUP3 ADD DUP1 SLOAD PUSH2 0x3BB SWAP1 PUSH2 0x17C3 JUMP JUMPDEST DUP1 PUSH1 0x1F ADD PUSH1 0x20 DUP1 SWAP2 DIV MUL PUSH1 0x20 ADD PUSH1 0x40 MLOAD SWAP1 DUP2 ADD PUSH1 0x40 MSTORE DUP1 SWAP3 SWAP2 SWAP1 DUP2 DUP2 MSTORE PUSH1 0x20 ADD DUP3 DUP1 SLOAD PUSH2 0x3E7 SWAP1 PUSH2 0x17C3 JUMP JUMPDEST DUP1 ISZERO PUSH2 0x434 JUMPI DUP1 PUSH1 0x1F LT PUSH2 0x409 JUMPI PUSH2 0x100 DUP1 DUP4 SLOAD DIV MUL DUP4 MSTORE SWAP2 PUSH1 0x20 ADD SWAP2 PUSH2 0x434 JUMP JUMPDEST DUP3 ADD SWAP2 SWAP1 PUSH1 0x0 MSTORE PUSH1 0x20 PUSH1 0x0 KECCAK256 SWAP1 JUMPDEST DUP2 SLOAD DUP2 MSTORE SWAP1 PUSH1 0x1 ADD SWAP1 PUSH1 0x20 ADD DUP1 DUP4 GT PUSH2 0x417 JUMPI DUP3 SWAP1 SUB PUSH1 0x1F AND DUP3 ADD SWAP2 JUMPDEST POP POP POP POP POP DUP2 MSTORE PUSH1 0x20 ADD PUSH1 0x3 DUP3 ADD DUP1 SLOAD PUSH2 0x44D SWAP1 PUSH2 0x17C3 JUMP JUMPDEST DUP1 PUSH1 0x1F ADD PUSH1 0x20 DUP1 SWAP2 DIV MUL PUSH1 0x20 ADD PUSH1 0x40 MLOAD SWAP1 DUP2 ADD PUSH1 0x40 MSTORE DUP1 SWAP3 SWAP2 SWAP1 DUP2 DUP2 MSTORE PUSH1 0x20 ADD DUP3 DUP1 SLOAD PUSH2 0x479 SWAP1 PUSH2 0x17C3 JUMP JUMPDEST DUP1 ISZERO PUSH2 0x4C6 JUMPI DUP1 PUSH1 0x1F LT PUSH2 0x49B JUMPI PUSH2 0x100 DUP1 DUP4 SLOAD DIV MUL DUP4 MSTORE SWAP2 PUSH1 0x20 ADD SWAP2 PUSH2 0x4C6 JUMP JUMPDEST DUP3 ADD SWAP2 SWAP1 PUSH1 0x0 MSTORE PUSH1 0x20 PUSH1 0x0 KECCAK256 SWAP1 JUMPDEST DUP2 SLOAD DUP2 MSTORE SWAP1 PUSH1 0x1 ADD SWAP1 PUSH1 0x20 ADD DUP1 DUP4 GT PUSH2 0x4A9 JUMPI DUP3 SWAP1 SUB PUSH1 0x1F AND DUP3 ADD SWAP2 JUMPDEST POP POP POP POP POP DUP2 MSTORE PUSH1 0x20 ADD PUSH1 0x4 DUP3 ADD DUP1 SLOAD PUSH2 0x4DF SWAP1 PUSH2 0x17C3 JUMP JUMPDEST DUP1 PUSH1 0x1F ADD PUSH1 0x20 DUP1 SWAP2 DIV MUL PUSH1 0x20 ADD PUSH1 0x40 MLOAD SWAP1 DUP2 ADD PUSH1 0x40 MSTORE DUP1 SWAP3 SWAP2 SWAP1 DUP2 DUP2 MSTORE PUSH1 0x20 ADD DUP3 DUP1 SLOAD PUSH2 0x50B SWAP1 PUSH2 0x17C3 JUMP JUMPDEST DUP1 ISZERO PUSH2 0x558 JUMPI DUP1 PUSH1 0x1F LT PUSH2 0x52D JUMPI PUSH2 0x100 DUP1 DUP4 SLOAD DIV MUL DUP4 MSTORE SWAP2 PUSH1 0x20 ADD SWAP2 PUSH2 0x558 JUMP JUMPDEST DUP3 ADD SWAP2 SWAP1 PUSH1 0x0 MSTORE PUSH1 0x20 PUSH1 0x0 KECCAK256 SWAP1 JUMPDEST DUP2 SLOAD DUP2 MSTORE SWAP1 PUSH1 0x1 ADD SWAP1 PUSH1 0x20 ADD DUP1 DUP4 GT PUSH2 0x53B JUMPI DUP3 SWAP1 SUB PUSH1 0x1F AND DUP3 ADD SWAP2 JUMPDEST POP POP POP POP POP DUP2 MSTORE PUSH1 0x20 ADD PUSH1 0x5 DUP3 ADD DUP1 SLOAD PUSH2 0x571 SWAP1 PUSH2 0x17C3 JUMP JUMPDEST DUP1 PUSH1 0x1F ADD PUSH1 0x20 DUP1 SWAP2 DIV MUL PUSH1 0x20 ADD PUSH1 0x40 MLOAD SWAP1 DUP2 ADD PUSH1 0x40 MSTORE DUP1 SWAP3 SWAP2 SWAP1 DUP2 DUP2 MSTORE PUSH1 0x20 ADD DUP3 DUP1 SLOAD PUSH2 0x59D SWAP1 PUSH2 0x17C3 JUMP JUMPDEST DUP1 ISZERO PUSH2 0x5EA JUMPI DUP1 PUSH1 0x1F LT PUSH2 0x5BF JUMPI PUSH2 0x100 DUP1 DUP4 SLOAD DIV MUL DUP4 MSTORE SWAP2 PUSH1 0x20 ADD SWAP2 PUSH2 0x5EA JUMP JUMPDEST DUP3 ADD SWAP2 SWAP1 PUSH1 0x0 MSTORE PUSH1 0x20 PUSH1 0x0 KECCAK256 SWAP1 JUMPDEST DUP2 SLOAD DUP2 MSTORE SWAP1 PUSH1 0x1 ADD SWAP1 PUSH1 0x20 ADD DUP1 DUP4 GT PUSH2 0x5CD JUMPI DUP3 SWAP1 SUB PUSH1 0x1F AND DUP3 ADD SWAP2 JUMPDEST POP POP POP POP POP DUP2 MSTORE POP POP DUP4 DUP4 DUP2 MLOAD DUP2 LT PUSH2 0x606 JUMPI PUSH2 0x605 PUSH2 0x17F4 JUMP JUMPDEST JUMPDEST PUSH1 0x20 MUL PUSH1 0x20 ADD ADD DUP2 SWAP1 MSTORE POP PUSH1 0x1 DUP3 PUSH2 0x61E SWAP2 SWAP1 PUSH2 0x1852 JUMP JUMPDEST SWAP2 POP JUMPDEST DUP1 DUP1 PUSH2 0x62C SWAP1 PUSH2 0x1886 JUMP JUMPDEST SWAP2 POP POP PUSH2 0x2BB JUMP JUMPDEST POP DUP2 SWAP4 POP POP POP POP JUMPDEST SWAP2 SWAP1 POP JUMP JUMPDEST PUSH2 0x649 PUSH2 0xF98 JUMP JUMPDEST PUSH1 0x3 PUSH1 0x0 DUP4 DUP2 MSTORE PUSH1 0x20 ADD SWAP1 DUP2 MSTORE PUSH1 0x20 ADD PUSH1 0x0 KECCAK256 PUSH1 0x40 MLOAD DUP1 PUSH1 0xC0 ADD PUSH1 0x40 MSTORE SWAP1 DUP2 PUSH1 0x0 DUP3 ADD SLOAD DUP2 MSTORE PUSH1 0x20 ADD PUSH1 0x1 DUP3 ADD PUSH1 0x0 SWAP1 SLOAD SWAP1 PUSH2 0x100 EXP SWAP1 DIV PUSH20 0xFFFFFFFFFFFFFFFFFFFFFFFFFFFFFFFFFFFFFFFF AND PUSH20 0xFFFFFFFFFFFFFFFFFFFFFFFFFFFFFFFFFFFFFFFF AND PUSH20 0xFFFFFFFFFFFFFFFFFFFFFFFFFFFFFFFFFFFFFFFF AND DUP2 MSTORE PUSH1 0x20 ADD PUSH1 0x2 DUP3 ADD DUP1 SLOAD PUSH2 0x6D7 SWAP1 PUSH2 0x17C3 JUMP JUMPDEST DUP1 PUSH1 0x1F ADD PUSH1 0x20 DUP1 SWAP2 DIV MUL PUSH1 0x20 ADD PUSH1 0x40 MLOAD SWAP1 DUP2 ADD PUSH1 0x40 MSTORE DUP1 SWAP3 SWAP2 SWAP1 DUP2 DUP2 MSTORE PUSH1 0x20 ADD DUP3 DUP1 SLOAD PUSH2 0x703 SWAP1 PUSH2 0x17C3 JUMP JUMPDEST DUP1 ISZERO PUSH2 0x750 JUMPI DUP1 PUSH1 0x1F LT PUSH2 0x725 JUMPI PUSH2 0x100 DUP1 DUP4 SLOAD DIV MUL DUP4 MSTORE SWAP2 PUSH1 0x20 ADD SWAP2 PUSH2 0x750 JUMP JUMPDEST DUP3 ADD SWAP2 SWAP1 PUSH1 0x0 MSTORE PUSH1 0x20 PUSH1 0x0 KECCAK256 SWAP1 JUMPDEST DUP2 SLOAD DUP2 MSTORE SWAP1 PUSH1 0x1 ADD SWAP1 PUSH1 0x20 ADD DUP1 DUP4 GT PUSH2 0x733 JUMPI DUP3 SWAP1 SUB PUSH1 0x1F AND DUP3 ADD SWAP2 JUMPDEST POP POP POP POP POP DUP2 MSTORE PUSH1 0x20 ADD PUSH1 0x3 DUP3 ADD DUP1 SLOAD PUSH2 0x769 SWAP1 PUSH2 0x17C3 JUMP JUMPDEST DUP1 PUSH1 0x1F ADD PUSH1 0x20 DUP1 SWAP2 DIV MUL PUSH1 0x20 ADD PUSH1 0x40 MLOAD SWAP1 DUP2 ADD PUSH1 0x40 MSTORE DUP1 SWAP3 SWAP2 SWAP1 DUP2 DUP2 MSTORE PUSH1 0x20 ADD DUP3 DUP1 SLOAD PUSH2 0x795 SWAP1 PUSH2 0x17C3 JUMP JUMPDEST DUP1 ISZERO PUSH2 0x7E2 JUMPI DUP1 PUSH1 0x1F LT PUSH2 0x7B7 JUMPI PUSH2 0x100 DUP1 DUP4 SLOAD DIV MUL DUP4 MSTORE SWAP2 PUSH1 0x20 ADD SWAP2 PUSH2 0x7E2 JUMP JUMPDEST DUP3 ADD SWAP2 SWAP1 PUSH1 0x0 MSTORE PUSH1 0x20 PUSH1 0x0 KECCAK256 SWAP1 JUMPDEST DUP2 SLOAD DUP2 MSTORE SWAP1 PUSH1 0x1 ADD SWAP1 PUSH1 0x20 ADD DUP1 DUP4 GT PUSH2 0x7C5 JUMPI DUP3 SWAP1 SUB PUSH1 0x1F AND DUP3 ADD SWAP2 JUMPDEST POP POP POP POP POP DUP2 MSTORE PUSH1 0x20 ADD PUSH1 0x4 DUP3 ADD DUP1 SLOAD PUSH2 0x7FB SWAP1 PUSH2 0x17C3 JUMP JUMPDEST DUP1 PUSH1 0x1F ADD PUSH1 0x20 DUP1 SWAP2 DIV MUL PUSH1 0x20 ADD PUSH1 0x40 MLOAD SWAP1 DUP2 ADD PUSH1 0x40 MSTORE DUP1 SWAP3 SWAP2 SWAP1 DUP2 DUP2 MSTORE PUSH1 0x20 ADD DUP3 DUP1 SLOAD PUSH2 0x827 SWAP1 PUSH2 0x17C3 JUMP JUMPDEST DUP1 ISZERO PUSH2 0x874 JUMPI DUP1 PUSH1 0x1F LT PUSH2 0x849 JUMPI PUSH2 0x100 DUP1 DUP4 SLOAD DIV MUL DUP4 MSTORE SWAP2 PUSH1 0x20 ADD SWAP2 PUSH2 0x874 JUMP JUMPDEST DUP3 ADD SWAP2 SWAP1 PUSH1 0x0 MSTORE PUSH1 0x20 PUSH1 0x0 KECCAK256 SWAP1 JUMPDEST DUP2 SLOAD DUP2 MSTORE SWAP1 PUSH1 0x1 ADD SWAP1 PUSH1 0x20 ADD DUP1 DUP4 GT PUSH2 0x857 JUMPI DUP3 SWAP1 SUB PUSH1 0x1F AND DUP3 ADD SWAP2 JUMPDEST POP POP POP POP POP DUP2 MSTORE PUSH1 0x20 ADD PUSH1 0x5 DUP3 ADD DUP1 SLOAD PUSH2 0x88D SWAP1 PUSH2 0x17C3 JUMP JUMPDEST DUP1 PUSH1 0x1F ADD PUSH1 0x20 DUP1 SWAP2 DIV MUL PUSH1 0x20 ADD PUSH1 0x40 MLOAD SWAP1 DUP2 ADD PUSH1 0x40 MSTORE DUP1 SWAP3 SWAP2 SWAP1 DUP2 DUP2 MSTORE PUSH1 0x20 ADD DUP3 DUP1 SLOAD PUSH2 0x8B9 SWAP1 PUSH2 0x17C3 JUMP JUMPDEST DUP1 ISZERO PUSH2 0x906 JUMPI DUP1 PUSH1 0x1F LT PUSH2 0x8DB JUMPI PUSH2 0x100 DUP1 DUP4 SLOAD DIV MUL DUP4 MSTORE SWAP2 PUSH1 0x20 ADD SWAP2 PUSH2 0x906 JUMP JUMPDEST DUP3 ADD SWAP2 SWAP1 PUSH1 0x0 MSTORE PUSH1 0x20 PUSH1 0x0 KECCAK256 SWAP1 JUMPDEST DUP2 SLOAD DUP2 MSTORE SWAP1 PUSH1 0x1 ADD SWAP1 PUSH1 0x20 ADD DUP1 DUP4 GT PUSH2 0x8E9 JUMPI DUP3 SWAP1 SUB PUSH1 0x1F AND DUP3 ADD SWAP2 JUMPDEST POP POP POP POP POP DUP2 MSTORE POP POP SWAP1 POP SWAP2 SWAP1 POP JUMP JUMPDEST PUSH1 0x0 PUSH1 0x1 PUSH1 0x0 DUP1 DUP3 DUP3 SLOAD PUSH2 0x92A SWAP2 SWAP1 PUSH2 0x1852 JUMP JUMPDEST SWAP3 POP POP DUP2 SWAP1 SSTORE POP PUSH1 0x2 DUP6 PUSH1 0x40 MLOAD PUSH2 0x941 SWAP2 SWAP1 PUSH2 0x190A JUMP JUMPDEST SWAP1 DUP2 MSTORE PUSH1 0x20 ADD PUSH1 0x40 MLOAD DUP1 SWAP2 SUB SWAP1 KECCAK256 PUSH1 0x0 SWAP1 SLOAD SWAP1 PUSH2 0x100 EXP SWAP1 DIV PUSH1 0xFF AND ISZERO DUP1 ISZERO PUSH2 0x993 JUMPI POP PUSH1 0x1 DUP6 PUSH1 0x40 MLOAD PUSH2 0x975 SWAP2 SWAP1 PUSH2 0x190A JUMP JUMPDEST SWAP1 DUP2 MSTORE PUSH1 0x20 ADD PUSH1 0x40 MLOAD DUP1 SWAP2 SUB SWAP1 KECCAK256 PUSH1 0x0 SWAP1 SLOAD SWAP1 PUSH2 0x100 EXP SWAP1 DIV PUSH1 0xFF AND ISZERO JUMPDEST PUSH2 0x9D2 JUMPI PUSH1 0x40 MLOAD PUSH32 0x8C379A000000000000000000000000000000000000000000000000000000000 DUP2 MSTORE PUSH1 0x4 ADD PUSH2 0x9C9 SWAP1 PUSH2 0x197E JUMP JUMPDEST PUSH1 0x40 MLOAD DUP1 SWAP2 SUB SWAP1 REVERT JUMPDEST PUSH1 0x1 DUP1 DUP8 PUSH1 0x40 MLOAD PUSH2 0x9E3 SWAP2 SWAP1 PUSH2 0x190A JUMP JUMPDEST SWAP1 DUP2 MSTORE PUSH1 0x20 ADD PUSH1 0x40 MLOAD DUP1 SWAP2 SUB SWAP1 KECCAK256 PUSH1 0x0 PUSH2 0x100 EXP DUP2 SLOAD DUP2 PUSH1 0xFF MUL NOT AND SWAP1 DUP4 ISZERO ISZERO MUL OR SWAP1 SSTORE POP PUSH1 0x1 PUSH1 0x2 DUP7 PUSH1 0x40 MLOAD PUSH2 0xA1A SWAP2 SWAP1 PUSH2 0x190A JUMP JUMPDEST SWAP1 DUP2 MSTORE PUSH1 0x20 ADD PUSH1 0x40 MLOAD DUP1 SWAP2 SUB SWAP1 KECCAK256 PUSH1 0x0 PUSH2 0x100 EXP DUP2 SLOAD DUP2 PUSH1 0xFF MUL NOT AND SWAP1 DUP4 ISZERO ISZERO MUL OR SWAP1 SSTORE POP PUSH1 0x40 MLOAD DUP1 PUSH1 0xC0 ADD PUSH1 0x40 MSTORE DUP1 PUSH1 0x0 SLOAD DUP2 MSTORE PUSH1 0x20 ADD DUP4 PUSH20 0xFFFFFFFFFFFFFFFFFFFFFFFFFFFFFFFFFFFFFFFF AND DUP2 MSTORE PUSH1 0x20 ADD DUP7 DUP2 MSTORE PUSH1 0x20 ADD DUP6 DUP2 MSTORE PUSH1 0x20 ADD DUP5 DUP2 MSTORE PUSH1 0x20 ADD DUP8 DUP2 MSTORE POP PUSH1 0x3 PUSH1 0x0 DUP1 SLOAD DUP2 MSTORE PUSH1 0x20 ADD SWAP1 DUP2 MSTORE PUSH1 0x20 ADD PUSH1 0x0 KECCAK256 PUSH1 0x0 DUP3 ADD MLOAD DUP2 PUSH1 0x0 ADD SSTORE PUSH1 0x20 DUP3 ADD MLOAD DUP2 PUSH1 0x1 ADD PUSH1 0x0 PUSH2 0x100 EXP DUP2 SLOAD DUP2 PUSH20 0xFFFFFFFFFFFFFFFFFFFFFFFFFFFFFFFFFFFFFFFF MUL NOT AND SWAP1 DUP4 PUSH20 0xFFFFFFFFFFFFFFFFFFFFFFFFFFFFFFFFFFFFFFFF AND MUL OR SWAP1 SSTORE POP PUSH1 0x40 DUP3 ADD MLOAD DUP2 PUSH1 0x2 ADD SWAP1 DUP2 PUSH2 0xAFE SWAP2 SWAP1 PUSH2 0x1B4A JUMP JUMPDEST POP PUSH1 0x60 DUP3 ADD MLOAD DUP2 PUSH1 0x3 ADD SWAP1 DUP2 PUSH2 0xB14 SWAP2 SWAP1 PUSH2 0x1B4A JUMP JUMPDEST POP PUSH1 0x80 DUP3 ADD MLOAD DUP2 PUSH1 0x4 ADD SWAP1 DUP2 PUSH2 0xB2A SWAP2 SWAP1 PUSH2 0x1B4A JUMP JUMPDEST POP PUSH1 0xA0 DUP3 ADD MLOAD DUP2 PUSH1 0x5 ADD SWAP1 DUP2 PUSH2 0xB40 SWAP2 SWAP1 PUSH2 0x1B4A JUMP JUMPDEST POP SWAP1 POP POP PUSH32 0xDDF252AD1BE2C89B69C2B068FC378DAA952BA7F163C4A11628F55A4DF523B3EF PUSH1 0x0 DUP4 PUSH1 0x0 SLOAD PUSH1 0x40 MLOAD PUSH2 0xB7A SWAP4 SWAP3 SWAP2 SWAP1 PUSH2 0x1C1C JUMP JUMPDEST PUSH1 0x40 MLOAD DUP1 SWAP2 SUB SWAP1 LOG1 PUSH1 0x0 PUSH1 0x4 PUSH1 0x0 DUP5 PUSH20 0xFFFFFFFFFFFFFFFFFFFFFFFFFFFFFFFFFFFFFFFF AND PUSH20 0xFFFFFFFFFFFFFFFFFFFFFFFFFFFFFFFFFFFFFFFF AND DUP2 MSTORE PUSH1 0x20 ADD SWAP1 DUP2 MSTORE PUSH1 0x20 ADD PUSH1 0x0 KECCAK256 SLOAD SUB PUSH2 0xC12 JUMPI PUSH1 0x1 PUSH1 0x4 PUSH1 0x0 DUP5 PUSH20 0xFFFFFFFFFFFFFFFFFFFFFFFFFFFFFFFFFFFFFFFF AND PUSH20 0xFFFFFFFFFFFFFFFFFFFFFFFFFFFFFFFFFFFFFFFF AND DUP2 MSTORE PUSH1 0x20 ADD SWAP1 DUP2 MSTORE PUSH1 0x20 ADD PUSH1 0x0 KECCAK256 DUP2 SWAP1 SSTORE PUSH2 0xC69 JUMP JUMPDEST PUSH1 0x1 PUSH1 0x4 PUSH1 0x0 DUP5 PUSH20 0xFFFFFFFFFFFFFFFFFFFFFFFFFFFFFFFFFFFFFFFF AND PUSH20 0xFFFFFFFFFFFFFFFFFFFFFFFFFFFFFFFFFFFFFFFF AND DUP2 MSTORE PUSH1 0x20 ADD SWAP1 DUP2 MSTORE PUSH1 0x20 ADD PUSH1 0x0 KECCAK256 PUSH1 0x0 DUP3 DUP3 SLOAD PUSH2 0xC62 SWAP2 SWAP1 PUSH2 0x1852 JUMP JUMPDEST SWAP3 POP POP DUP2 SWAP1 SSTORE JUMPDEST POP PUSH1 0x0 SLOAD SWAP1 POP SWAP6 SWAP5 POP POP POP POP POP JUMP JUMPDEST PUSH1 0x0 DUP1 DUP3 SWAP1 POP DUP1 MLOAD SWAP2 POP POP SWAP2 SWAP1 POP JUMP JUMPDEST PUSH1 0x0 PUSH1 0x2 DUP4 PUSH1 0x40 MLOAD PUSH2 0xC9A SWAP2 SWAP1 PUSH2 0x190A JUMP JUMPDEST SWAP1 DUP2 MSTORE PUSH1 0x20 ADD PUSH1 0x40 MLOAD DUP1 SWAP2 SUB SWAP1 KECCAK256 PUSH1 0x0 SWAP1 SLOAD SWAP1 PUSH2 0x100 EXP SWAP1 DIV PUSH1 0xFF AND DUP1 PUSH2 0xCE9 JUMPI POP PUSH1 0x1 DUP3 PUSH1 0x40 MLOAD PUSH2 0xCCC SWAP2 SWAP1 PUSH2 0x190A JUMP JUMPDEST SWAP1 DUP2 MSTORE PUSH1 0x20 ADD PUSH1 0x40 MLOAD DUP1 SWAP2 SUB SWAP1 KECCAK256 PUSH1 0x0 SWAP1 SLOAD SWAP1 PUSH2 0x100 EXP SWAP1 DIV PUSH1 0xFF AND JUMPDEST SWAP1 POP SWAP3 SWAP2 POP POP JUMP JUMPDEST PUSH1 0x3 PUSH1 0x0 DUP3 DUP2 MSTORE PUSH1 0x20 ADD SWAP1 DUP2 MSTORE PUSH1 0x20 ADD PUSH1 0x0 KECCAK256 PUSH1 0x1 ADD PUSH1 0x0 SWAP1 SLOAD SWAP1 PUSH2 0x100 EXP SWAP1 DIV PUSH20 0xFFFFFFFFFFFFFFFFFFFFFFFFFFFFFFFFFFFFFFFF AND PUSH20 0xFFFFFFFFFFFFFFFFFFFFFFFFFFFFFFFFFFFFFFFF AND DUP4 PUSH20 0xFFFFFFFFFFFFFFFFFFFFFFFFFFFFFFFFFFFFFFFF AND EQ PUSH2 0xD95 JUMPI PUSH1 0x40 MLOAD PUSH32 0x8C379A000000000000000000000000000000000000000000000000000000000 DUP2 MSTORE PUSH1 0x4 ADD PUSH2 0xD8C SWAP1 PUSH2 0x1CC5 JUMP JUMPDEST PUSH1 0x40 MLOAD DUP1 SWAP2 SUB SWAP1 REVERT JUMPDEST PUSH1 0x0 PUSH20 0xFFFFFFFFFFFFFFFFFFFFFFFFFFFFFFFFFFFFFFFF AND DUP3 PUSH20 0xFFFFFFFFFFFFFFFFFFFFFFFFFFFFFFFFFFFFFFFF AND SUB PUSH2 0xE04 JUMPI PUSH1 0x40 MLOAD PUSH32 0x8C379A000000000000000000000000000000000000000000000000000000000 DUP2 MSTORE PUSH1 0x4 ADD PUSH2 0xDFB SWAP1 PUSH2 0x1D57 JUMP JUMPDEST PUSH1 0x40 MLOAD DUP1 SWAP2 SUB SWAP1 REVERT JUMPDEST DUP2 PUSH1 0x3 PUSH1 0x0 DUP4 DUP2 MSTORE PUSH1 0x20 ADD SWAP1 DUP2 MSTORE PUSH1 0x20 ADD PUSH1 0x0 KECCAK256 PUSH1 0x1 ADD PUSH1 0x0 PUSH2 0x100 EXP DUP2 SLOAD DUP2 PUSH20 0xFFFFFFFFFFFFFFFFFFFFFFFFFFFFFFFFFFFFFFFF MUL NOT AND SWAP1 DUP4 PUSH20 0xFFFFFFFFFFFFFFFFFFFFFFFFFFFFFFFFFFFFFFFF AND MUL OR SWAP1 SSTORE POP PUSH1 0x1 PUSH1 0x4 PUSH1 0x0 DUP6 PUSH20 0xFFFFFFFFFFFFFFFFFFFFFFFFFFFFFFFFFFFFFFFF AND PUSH20 0xFFFFFFFFFFFFFFFFFFFFFFFFFFFFFFFFFFFFFFFF AND DUP2 MSTORE PUSH1 0x20 ADD SWAP1 DUP2 MSTORE PUSH1 0x20 ADD PUSH1 0x0 KECCAK256 PUSH1 0x0 DUP3 DUP3 SLOAD PUSH2 0xEA9 SWAP2 SWAP1 PUSH2 0x1D77 JUMP JUMPDEST SWAP3 POP POP DUP2 SWAP1 SSTORE POP PUSH1 0x1 PUSH1 0x4 PUSH1 0x0 DUP5 PUSH20 0xFFFFFFFFFFFFFFFFFFFFFFFFFFFFFFFFFFFFFFFF AND PUSH20 0xFFFFFFFFFFFFFFFFFFFFFFFFFFFFFFFFFFFFFFFF AND DUP2 MSTORE PUSH1 0x20 ADD SWAP1 DUP2 MSTORE PUSH1 0x20 ADD PUSH1 0x0 KECCAK256 PUSH1 0x0 DUP3 DUP3 SLOAD PUSH2 0xF00 SWAP2 SWAP1 PUSH2 0x1852 JUMP JUMPDEST SWAP3 POP POP DUP2 SWAP1 SSTORE POP PUSH32 0xDDF252AD1BE2C89B69C2B068FC378DAA952BA7F163C4A11628F55A4DF523B3EF DUP4 DUP4 DUP4 PUSH1 0x40 MLOAD PUSH2 0xF3A SWAP4 SWAP3 SWAP2 SWAP1 PUSH2 0x1C1C JUMP JUMPDEST PUSH1 0x40 MLOAD DUP1 SWAP2 SUB SWAP1 LOG1 POP POP POP JUMP JUMPDEST PUSH1 0x0 PUSH1 0x4 PUSH1 0x0 DUP4 PUSH20 0xFFFFFFFFFFFFFFFFFFFFFFFFFFFFFFFFFFFFFFFF AND PUSH20 0xFFFFFFFFFFFFFFFFFFFFFFFFFFFFFFFFFFFFFFFF AND DUP2 MSTORE PUSH1 0x20 ADD SWAP1 DUP2 MSTORE PUSH1 0x20 ADD PUSH1 0x0 KECCAK256 SLOAD SWAP1 POP SWAP2 SWAP1 POP JUMP JUMPDEST PUSH1 0x0 ADDRESS SWAP1 POP SWAP1 JUMP JUMPDEST PUSH1 0x40 MLOAD DUP1 PUSH1 0xC0 ADD PUSH1 0x40 MSTORE DUP1 PUSH1 0x0 DUP2 MSTORE PUSH1 0x20 ADD PUSH1 0x0 PUSH20 0xFFFFFFFFFFFFFFFFFFFFFFFFFFFFFFFFFFFFFFFF AND DUP2 MSTORE PUSH1 0x20 ADD PUSH1 0x60 DUP2 MSTORE PUSH1 0x20 ADD PUSH1 0x60 DUP2 MSTORE PUSH1 0x20 ADD PUSH1 0x60 DUP2 MSTORE PUSH1 0x20 ADD PUSH1 0x60 DUP2 MSTORE POP SWAP1 JUMP JUMPDEST PUSH1 0x0 PUSH1 0x40 MLOAD SWAP1 POP SWAP1 JUMP JUMPDEST PUSH1 0x0 DUP1 REVERT JUMPDEST PUSH1 0x0 DUP1 REVERT JUMPDEST PUSH1 0x0 PUSH20 0xFFFFFFFFFFFFFFFFFFFFFFFFFFFFFFFFFFFFFFFF DUP3 AND SWAP1 POP SWAP2 SWAP1 POP JUMP JUMPDEST PUSH1 0x0 PUSH2 0x1023 DUP3 PUSH2 0xFF8 JUMP JUMPDEST SWAP1 POP SWAP2 SWAP1 POP JUMP JUMPDEST PUSH2 0x1033 DUP2 PUSH2 0x1018 JUMP JUMPDEST DUP2 EQ PUSH2 0x103E JUMPI PUSH1 0x0 DUP1 REVERT JUMPDEST POP JUMP JUMPDEST PUSH1 0x0 DUP2 CALLDATALOAD SWAP1 POP PUSH2 0x1050 DUP2 PUSH2 0x102A JUMP JUMPDEST SWAP3 SWAP2 POP POP JUMP JUMPDEST PUSH1 0x0 PUSH1 0x20 DUP3 DUP5 SUB SLT ISZERO PUSH2 0x106C JUMPI PUSH2 0x106B PUSH2 0xFEE JUMP JUMPDEST JUMPDEST PUSH1 0x0 PUSH2 0x107A DUP5 DUP3 DUP6 ADD PUSH2 0x1041 JUMP JUMPDEST SWAP2 POP POP SWAP3 SWAP2 POP POP JUMP JUMPDEST PUSH1 0x0 DUP2 MLOAD SWAP1 POP SWAP2 SWAP1 POP JUMP JUMPDEST PUSH1 0x0 DUP3 DUP3 MSTORE PUSH1 0x20 DUP3 ADD SWAP1 POP SWAP3 SWAP2 POP POP JUMP JUMPDEST PUSH1 0x0 DUP2 SWAP1 POP PUSH1 0x20 DUP3 ADD SWAP1 POP SWAP2 SWAP1 POP JUMP JUMPDEST PUSH1 0x0 DUP2 SWAP1 POP SWAP2 SWAP1 POP JUMP JUMPDEST PUSH2 0x10C2 DUP2 PUSH2 0x10AF JUMP JUMPDEST DUP3 MSTORE POP POP JUMP JUMPDEST PUSH2 0x10D1 DUP2 PUSH2 0x1018 JUMP JUMPDEST DUP3 MSTORE POP POP JUMP JUMPDEST PUSH1 0x0 DUP2 MLOAD SWAP1 POP SWAP2 SWAP1 POP JUMP JUMPDEST PUSH1 0x0 DUP3 DUP3 MSTORE PUSH1 0x20 DUP3 ADD SWAP1 POP SWAP3 SWAP2 POP POP JUMP JUMPDEST PUSH1 0x0 JUMPDEST DUP4 DUP2 LT ISZERO PUSH2 0x1111 JUMPI DUP1 DUP3 ADD MLOAD DUP2 DUP5 ADD MSTORE PUSH1 0x20 DUP2 ADD SWAP1 POP PUSH2 0x10F6 JUMP JUMPDEST PUSH1 0x0 DUP5 DUP5 ADD MSTORE POP POP POP POP JUMP JUMPDEST PUSH1 0x0 PUSH1 0x1F NOT PUSH1 0x1F DUP4 ADD AND SWAP1 POP SWAP2 SWAP1 POP JUMP JUMPDEST PUSH1 0x0 PUSH2 0x1139 DUP3 PUSH2 0x10D7 JUMP JUMPDEST PUSH2 0x1143 DUP2 DUP6 PUSH2 0x10E2 JUMP JUMPDEST SWAP4 POP PUSH2 0x1153 DUP2 DUP6 PUSH1 0x20 DUP7 ADD PUSH2 0x10F3 JUMP JUMPDEST PUSH2 0x115C DUP2 PUSH2 0x111D JUMP JUMPDEST DUP5 ADD SWAP2 POP POP SWAP3 SWAP2 POP POP JUMP JUMPDEST PUSH1 0x0 PUSH1 0xC0 DUP4 ADD PUSH1 0x0 DUP4 ADD MLOAD PUSH2 0x117F PUSH1 0x0 DUP7 ADD DUP3 PUSH2 0x10B9 JUMP JUMPDEST POP PUSH1 0x20 DUP4 ADD MLOAD PUSH2 0x1192 PUSH1 0x20 DUP7 ADD DUP3 PUSH2 0x10C8 JUMP JUMPDEST POP PUSH1 0x40 DUP4 ADD MLOAD DUP5 DUP3 SUB PUSH1 0x40 DUP7 ADD MSTORE PUSH2 0x11AA DUP3 DUP3 PUSH2 0x112E JUMP JUMPDEST SWAP2 POP POP PUSH1 0x60 DUP4 ADD MLOAD DUP5 DUP3 SUB PUSH1 0x60 DUP7 ADD MSTORE PUSH2 0x11C4 DUP3 DUP3 PUSH2 0x112E JUMP JUMPDEST SWAP2 POP POP PUSH1 0x80 DUP4 ADD MLOAD DUP5 DUP3 SUB PUSH1 0x80 DUP7 ADD MSTORE PUSH2 0x11DE DUP3 DUP3 PUSH2 0x112E JUMP JUMPDEST SWAP2 POP POP PUSH1 0xA0 DUP4 ADD MLOAD DUP5 DUP3 SUB PUSH1 0xA0 DUP7 ADD MSTORE PUSH2 0x11F8 DUP3 DUP3 PUSH2 0x112E JUMP JUMPDEST SWAP2 POP POP DUP1 SWAP2 POP POP SWAP3 SWAP2 POP POP JUMP JUMPDEST PUSH1 0x0 PUSH2 0x1211 DUP4 DUP4 PUSH2 0x1167 JUMP JUMPDEST SWAP1 POP SWAP3 SWAP2 POP POP JUMP JUMPDEST PUSH1 0x0 PUSH1 0x20 DUP3 ADD SWAP1 POP SWAP2 SWAP1 POP JUMP JUMPDEST PUSH1 0x0 PUSH2 0x1231 DUP3 PUSH2 0x1083 JUMP JUMPDEST PUSH2 0x123B DUP2 DUP6 PUSH2 0x108E JUMP JUMPDEST SWAP4 POP DUP4 PUSH1 0x20 DUP3 MUL DUP6 ADD PUSH2 0x124D DUP6 PUSH2 0x109F JUMP JUMPDEST DUP1 PUSH1 0x0 JUMPDEST DUP6 DUP2 LT ISZERO PUSH2 0x1289 JUMPI DUP5 DUP5 SUB DUP10 MSTORE DUP2 MLOAD PUSH2 0x126A DUP6 DUP3 PUSH2 0x1205 JUMP JUMPDEST SWAP5 POP PUSH2 0x1275 DUP4 PUSH2 0x1219 JUMP JUMPDEST SWAP3 POP PUSH1 0x20 DUP11 ADD SWAP10 POP POP PUSH1 0x1 DUP2 ADD SWAP1 POP PUSH2 0x1251 JUMP JUMPDEST POP DUP3 SWAP8 POP DUP8 SWAP6 POP POP POP POP POP POP SWAP3 SWAP2 POP POP JUMP JUMPDEST PUSH1 0x0 PUSH1 0x20 DUP3 ADD SWAP1 POP DUP2 DUP2 SUB PUSH1 0x0 DUP4 ADD MSTORE PUSH2 0x12B5 DUP2 DUP5 PUSH2 0x1226 JUMP JUMPDEST SWAP1 POP SWAP3 SWAP2 POP POP JUMP JUMPDEST PUSH2 0x12C6 DUP2 PUSH2 0x10AF JUMP JUMPDEST DUP2 EQ PUSH2 0x12D1 JUMPI PUSH1 0x0 DUP1 REVERT JUMPDEST POP JUMP JUMPDEST PUSH1 0x0 DUP2 CALLDATALOAD SWAP1 POP PUSH2 0x12E3 DUP2 PUSH2 0x12BD JUMP JUMPDEST SWAP3 SWAP2 POP POP JUMP JUMPDEST PUSH1 0x0 PUSH1 0x20 DUP3 DUP5 SUB SLT ISZERO PUSH2 0x12FF JUMPI PUSH2 0x12FE PUSH2 0xFEE JUMP JUMPDEST JUMPDEST PUSH1 0x0 PUSH2 0x130D DUP5 DUP3 DUP6 ADD PUSH2 0x12D4 JUMP JUMPDEST SWAP2 POP POP SWAP3 SWAP2 POP POP JUMP JUMPDEST PUSH1 0x0 PUSH1 0xC0 DUP4 ADD PUSH1 0x0 DUP4 ADD MLOAD PUSH2 0x132E PUSH1 0x0 DUP7 ADD DUP3 PUSH2 0x10B9 JUMP JUMPDEST POP PUSH1 0x20 DUP4 ADD MLOAD PUSH2 0x1341 PUSH1 0x20 DUP7 ADD DUP3 PUSH2 0x10C8 JUMP JUMPDEST POP PUSH1 0x40 DUP4 ADD MLOAD DUP5 DUP3 SUB PUSH1 0x40 DUP7 ADD MSTORE PUSH2 0x1359 DUP3 DUP3 PUSH2 0x112E JUMP JUMPDEST SWAP2 POP POP PUSH1 0x60 DUP4 ADD MLOAD DUP5 DUP3 SUB PUSH1 0x60 DUP7 ADD MSTORE PUSH2 0x1373 DUP3 DUP3 PUSH2 0x112E JUMP JUMPDEST SWAP2 POP POP PUSH1 0x80 DUP4 ADD MLOAD DUP5 DUP3 SUB PUSH1 0x80 DUP7 ADD MSTORE PUSH2 0x138D DUP3 DUP3 PUSH2 0x112E JUMP JUMPDEST SWAP2 POP POP PUSH1 0xA0 DUP4 ADD MLOAD DUP5 DUP3 SUB PUSH1 0xA0 DUP7 ADD MSTORE PUSH2 0x13A7 DUP3 DUP3 PUSH2 0x112E JUMP JUMPDEST SWAP2 POP POP DUP1 SWAP2 POP POP SWAP3 SWAP2 POP POP JUMP JUMPDEST PUSH1 0x0 PUSH1 0x20 DUP3 ADD SWAP1 POP DUP2 DUP2 SUB PUSH1 0x0 DUP4 ADD MSTORE PUSH2 0x13CE DUP2 DUP5 PUSH2 0x1316 JUMP JUMPDEST SWAP1 POP SWAP3 SWAP2 POP POP JUMP JUMPDEST PUSH1 0x0 DUP1 REVERT JUMPDEST PUSH1 0x0 DUP1 REVERT JUMPDEST PUSH32 0x4E487B7100000000000000000000000000000000000000000000000000000000 PUSH1 0x0 MSTORE PUSH1 0x41 PUSH1 0x4 MSTORE PUSH1 0x24 PUSH1 0x0 REVERT JUMPDEST PUSH2 0x1418 DUP3 PUSH2 0x111D JUMP JUMPDEST DUP2 ADD DUP2 DUP2 LT PUSH8 0xFFFFFFFFFFFFFFFF DUP3 GT OR ISZERO PUSH2 0x1437 JUMPI PUSH2 0x1436 PUSH2 0x13E0 JUMP JUMPDEST JUMPDEST DUP1 PUSH1 0x40 MSTORE POP POP POP JUMP JUMPDEST PUSH1 0x0 PUSH2 0x144A PUSH2 0xFE4 JUMP JUMPDEST SWAP1 POP PUSH2 0x1456 DUP3 DUP3 PUSH2 0x140F JUMP JUMPDEST SWAP2 SWAP1 POP JUMP JUMPDEST PUSH1 0x0 PUSH8 0xFFFFFFFFFFFFFFFF DUP3 GT ISZERO PUSH2 0x1476 JUMPI PUSH2 0x1475 PUSH2 0x13E0 JUMP JUMPDEST JUMPDEST PUSH2 0x147F DUP3 PUSH2 0x111D JUMP JUMPDEST SWAP1 POP PUSH1 0x20 DUP2 ADD SWAP1 POP SWAP2 SWAP1 POP JUMP JUMPDEST DUP3 DUP2 DUP4 CALLDATACOPY PUSH1 0x0 DUP4 DUP4 ADD MSTORE POP POP POP JUMP JUMPDEST PUSH1 0x0 PUSH2 0x14AE PUSH2 0x14A9 DUP5 PUSH2 0x145B JUMP JUMPDEST PUSH2 0x1440 JUMP JUMPDEST SWAP1 POP DUP3 DUP2 MSTORE PUSH1 0x20 DUP2 ADD DUP5 DUP5 DUP5 ADD GT ISZERO PUSH2 0x14CA JUMPI PUSH2 0x14C9 PUSH2 0x13DB JUMP JUMPDEST JUMPDEST PUSH2 0x14D5 DUP5 DUP3 DUP6 PUSH2 0x148C JUMP JUMPDEST POP SWAP4 SWAP3 POP POP POP JUMP JUMPDEST PUSH1 0x0 DUP3 PUSH1 0x1F DUP4 ADD SLT PUSH2 0x14F2 JUMPI PUSH2 0x14F1 PUSH2 0x13D6 JUMP JUMPDEST JUMPDEST DUP2 CALLDATALOAD PUSH2 0x1502 DUP5 DUP3 PUSH1 0x20 DUP7 ADD PUSH2 0x149B JUMP JUMPDEST SWAP2 POP POP SWAP3 SWAP2 POP POP JUMP JUMPDEST PUSH1 0x0 DUP1 PUSH1 0x0 DUP1 PUSH1 0x0 PUSH1 0xA0 DUP7 DUP9 SUB SLT ISZERO PUSH2 0x1527 JUMPI PUSH2 0x1526 PUSH2 0xFEE JUMP JUMPDEST JUMPDEST PUSH1 0x0 DUP7 ADD CALLDATALOAD PUSH8 0xFFFFFFFFFFFFFFFF DUP2 GT ISZERO PUSH2 0x1545 JUMPI PUSH2 0x1544 PUSH2 0xFF3 JUMP JUMPDEST JUMPDEST PUSH2 0x1551 DUP9 DUP3 DUP10 ADD PUSH2 0x14DD JUMP JUMPDEST SWAP6 POP POP PUSH1 0x20 DUP7 ADD CALLDATALOAD PUSH8 0xFFFFFFFFFFFFFFFF DUP2 GT ISZERO PUSH2 0x1572 JUMPI PUSH2 0x1571 PUSH2 0xFF3 JUMP JUMPDEST JUMPDEST PUSH2 0x157E DUP9 DUP3 DUP10 ADD PUSH2 0x14DD JUMP JUMPDEST SWAP5 POP POP PUSH1 0x40 DUP7 ADD CALLDATALOAD PUSH8 0xFFFFFFFFFFFFFFFF DUP2 GT ISZERO PUSH2 0x159F JUMPI PUSH2 0x159E PUSH2 0xFF3 JUMP JUMPDEST JUMPDEST PUSH2 0x15AB DUP9 DUP3 DUP10 ADD PUSH2 0x14DD JUMP JUMPDEST SWAP4 POP POP PUSH1 0x60 DUP7 ADD CALLDATALOAD PUSH8 0xFFFFFFFFFFFFFFFF DUP2 GT ISZERO PUSH2 0x15CC JUMPI PUSH2 0x15CB PUSH2 0xFF3 JUMP JUMPDEST JUMPDEST PUSH2 0x15D8 DUP9 DUP3 DUP10 ADD PUSH2 0x14DD JUMP JUMPDEST SWAP3 POP POP PUSH1 0x80 PUSH2 0x15E9 DUP9 DUP3 DUP10 ADD PUSH2 0x1041 JUMP JUMPDEST SWAP2 POP POP SWAP3 SWAP6 POP SWAP3 SWAP6 SWAP1 SWAP4 POP JUMP JUMPDEST PUSH2 0x15FF DUP2 PUSH2 0x10AF JUMP JUMPDEST DUP3 MSTORE POP POP JUMP JUMPDEST PUSH1 0x0 PUSH1 0x20 DUP3 ADD SWAP1 POP PUSH2 0x161A PUSH1 0x0 DUP4 ADD DUP5 PUSH2 0x15F6 JUMP JUMPDEST SWAP3 SWAP2 POP POP JUMP JUMPDEST PUSH1 0x0 PUSH1 0x20 DUP3 DUP5 SUB SLT ISZERO PUSH2 0x1636 JUMPI PUSH2 0x1635 PUSH2 0xFEE JUMP JUMPDEST JUMPDEST PUSH1 0x0 DUP3 ADD CALLDATALOAD PUSH8 0xFFFFFFFFFFFFFFFF DUP2 GT ISZERO PUSH2 0x1654 JUMPI PUSH2 0x1653 PUSH2 0xFF3 JUMP JUMPDEST JUMPDEST PUSH2 0x1660 DUP5 DUP3 DUP6 ADD PUSH2 0x14DD JUMP JUMPDEST SWAP2 POP POP SWAP3 SWAP2 POP POP JUMP JUMPDEST PUSH1 0x0 DUP1 PUSH1 0x40 DUP4 DUP6 SUB SLT ISZERO PUSH2 0x1680 JUMPI PUSH2 0x167F PUSH2 0xFEE JUMP JUMPDEST JUMPDEST PUSH1 0x0 DUP4 ADD CALLDATALOAD PUSH8 0xFFFFFFFFFFFFFFFF DUP2 GT ISZERO PUSH2 0x169E JUMPI PUSH2 0x169D PUSH2 0xFF3 JUMP JUMPDEST JUMPDEST PUSH2 0x16AA DUP6 DUP3 DUP7 ADD PUSH2 0x14DD JUMP JUMPDEST SWAP3 POP POP PUSH1 0x20 DUP4 ADD CALLDATALOAD PUSH8 0xFFFFFFFFFFFFFFFF DUP2 GT ISZERO PUSH2 0x16CB JUMPI PUSH2 0x16CA PUSH2 0xFF3 JUMP JUMPDEST JUMPDEST PUSH2 0x16D7 DUP6 DUP3 DUP7 ADD PUSH2 0x14DD JUMP JUMPDEST SWAP2 POP POP SWAP3 POP SWAP3 SWAP1 POP JUMP JUMPDEST PUSH1 0x0 DUP2 ISZERO ISZERO SWAP1 POP SWAP2 SWAP1 POP JUMP JUMPDEST PUSH2 0x16F6 DUP2 PUSH2 0x16E1 JUMP JUMPDEST DUP3 MSTORE POP POP JUMP JUMPDEST PUSH1 0x0 PUSH1 0x20 DUP3 ADD SWAP1 POP PUSH2 0x1711 PUSH1 0x0 DUP4 ADD DUP5 PUSH2 0x16ED JUMP JUMPDEST SWAP3 SWAP2 POP POP JUMP JUMPDEST PUSH1 0x0 DUP1 PUSH1 0x0 PUSH1 0x60 DUP5 DUP7 SUB SLT ISZERO PUSH2 0x1730 JUMPI PUSH2 0x172F PUSH2 0xFEE JUMP JUMPDEST JUMPDEST PUSH1 0x0 PUSH2 0x173E DUP7 DUP3 DUP8 ADD PUSH2 0x1041 JUMP JUMPDEST SWAP4 POP POP PUSH1 0x20 PUSH2 0x174F DUP7 DUP3 DUP8 ADD PUSH2 0x1041 JUMP JUMPDEST SWAP3 POP POP PUSH1 0x40 PUSH2 0x1760 DUP7 DUP3 DUP8 ADD PUSH2 0x12D4 JUMP JUMPDEST SWAP2 POP POP SWAP3 POP SWAP3 POP SWAP3 JUMP JUMPDEST PUSH2 0x1773 DUP2 PUSH2 0x1018 JUMP JUMPDEST DUP3 MSTORE POP POP JUMP JUMPDEST PUSH1 0x0 PUSH1 0x20 DUP3 ADD SWAP1 POP PUSH2 0x178E PUSH1 0x0 DUP4 ADD DUP5 PUSH2 0x176A JUMP JUMPDEST SWAP3 SWAP2 POP POP JUMP JUMPDEST PUSH32 0x4E487B7100000000000000000000000000000000000000000000000000000000 PUSH1 0x0 MSTORE PUSH1 0x22 PUSH1 0x4 MSTORE PUSH1 0x24 PUSH1 0x0 REVERT JUMPDEST PUSH1 0x0 PUSH1 0x2 DUP3 DIV SWAP1 POP PUSH1 0x1 DUP3 AND DUP1 PUSH2 0x17DB JUMPI PUSH1 0x7F DUP3 AND SWAP2 POP JUMPDEST PUSH1 0x20 DUP3 LT DUP2 SUB PUSH2 0x17EE JUMPI PUSH2 0x17ED PUSH2 0x1794 JUMP JUMPDEST JUMPDEST POP SWAP2 SWAP1 POP JUMP JUMPDEST PUSH32 0x4E487B7100000000000000000000000000000000000000000000000000000000 PUSH1 0x0 MSTORE PUSH1 0x32 PUSH1 0x4 MSTORE PUSH1 0x24 PUSH1 0x0 REVERT JUMPDEST PUSH32 0x4E487B7100000000000000000000000000000000000000000000000000000000 PUSH1 0x0 MSTORE PUSH1 0x11 PUSH1 0x4 MSTORE PUSH1 0x24 PUSH1 0x0 REVERT JUMPDEST PUSH1 0x0 PUSH2 0x185D DUP3 PUSH2 0x10AF JUMP JUMPDEST SWAP2 POP PUSH2 0x1868 DUP4 PUSH2 0x10AF JUMP JUMPDEST SWAP3 POP DUP3 DUP3 ADD SWAP1 POP DUP1 DUP3 GT ISZERO PUSH2 0x1880 JUMPI PUSH2 0x187F PUSH2 0x1823 JUMP JUMPDEST JUMPDEST SWAP3 SWAP2 POP POP JUMP JUMPDEST PUSH1 0x0 PUSH2 0x1891 DUP3 PUSH2 0x10AF JUMP JUMPDEST SWAP2 POP PUSH32 0xFFFFFFFFFFFFFFFFFFFFFFFFFFFFFFFFFFFFFFFFFFFFFFFFFFFFFFFFFFFFFFFF DUP3 SUB PUSH2 0x18C3 JUMPI PUSH2 0x18C2 PUSH2 0x1823 JUMP JUMPDEST JUMPDEST PUSH1 0x1 DUP3 ADD SWAP1 POP SWAP2 SWAP1 POP JUMP JUMPDEST PUSH1 0x0 DUP2 SWAP1 POP SWAP3 SWAP2 POP POP JUMP JUMPDEST PUSH1 0x0 PUSH2 0x18E4 DUP3 PUSH2 0x10D7 JUMP JUMPDEST PUSH2 0x18EE DUP2 DUP6 PUSH2 0x18CE JUMP JUMPDEST SWAP4 POP PUSH2 0x18FE DUP2 DUP6 PUSH1 0x20 DUP7 ADD PUSH2 0x10F3 JUMP JUMPDEST DUP1 DUP5 ADD SWAP2 POP POP SWAP3 SWAP2 POP POP JUMP JUMPDEST PUSH1 0x0 PUSH2 0x1916 DUP3 DUP5 PUSH2 0x18D9 JUMP JUMPDEST SWAP2 POP DUP2 SWAP1 POP SWAP3 SWAP2 POP POP JUMP JUMPDEST PUSH1 0x0 DUP3 DUP3 MSTORE PUSH1 0x20 DUP3 ADD SWAP1 POP SWAP3 SWAP2 POP POP JUMP JUMPDEST PUSH32 0x4475626C6963617465204E465400000000000000000000000000000000000000 PUSH1 0x0 DUP3 ADD MSTORE POP JUMP JUMPDEST PUSH1 0x0 PUSH2 0x1968 PUSH1 0xD DUP4 PUSH2 0x1921 JUMP JUMPDEST SWAP2 POP PUSH2 0x1973 DUP3 PUSH2 0x1932 JUMP JUMPDEST PUSH1 0x20 DUP3 ADD SWAP1 POP SWAP2 SWAP1 POP JUMP JUMPDEST PUSH1 0x0 PUSH1 0x20 DUP3 ADD SWAP1 POP DUP2 DUP2 SUB PUSH1 0x0 DUP4 ADD MSTORE PUSH2 0x1997 DUP2 PUSH2 0x195B JUMP JUMPDEST SWAP1 POP SWAP2 SWAP1 POP JUMP JUMPDEST PUSH1 0x0 DUP2 SWAP1 POP DUP2 PUSH1 0x0 MSTORE PUSH1 0x20 PUSH1 0x0 KECCAK256 SWAP1 POP SWAP2 SWAP1 POP JUMP JUMPDEST PUSH1 0x0 PUSH1 0x20 PUSH1 0x1F DUP4 ADD DIV SWAP1 POP SWAP2 SWAP1 POP JUMP JUMPDEST PUSH1 0x0 DUP3 DUP3 SHL SWAP1 POP SWAP3 SWAP2 POP POP JUMP JUMPDEST PUSH1 0x0 PUSH1 0x8 DUP4 MUL PUSH2 0x1A00 PUSH32 0xFFFFFFFFFFFFFFFFFFFFFFFFFFFFFFFFFFFFFFFFFFFFFFFFFFFFFFFFFFFFFFFF DUP3 PUSH2 0x19C3 JUMP JUMPDEST PUSH2 0x1A0A DUP7 DUP4 PUSH2 0x19C3 JUMP JUMPDEST SWAP6 POP DUP1 NOT DUP5 AND SWAP4 POP DUP1 DUP7 AND DUP5 OR SWAP3 POP POP POP SWAP4 SWAP3 POP POP POP JUMP JUMPDEST PUSH1 0x0 DUP2 SWAP1 POP SWAP2 SWAP1 POP JUMP JUMPDEST PUSH1 0x0 PUSH2 0x1A47 PUSH2 0x1A42 PUSH2 0x1A3D DUP5 PUSH2 0x10AF JUMP JUMPDEST PUSH2 0x1A22 JUMP JUMPDEST PUSH2 0x10AF JUMP JUMPDEST SWAP1 POP SWAP2 SWAP1 POP JUMP JUMPDEST PUSH1 0x0 DUP2 SWAP1 POP SWAP2 SWAP1 POP JUMP JUMPDEST PUSH2 0x1A61 DUP4 PUSH2 0x1A2C JUMP JUMPDEST PUSH2 0x1A75 PUSH2 0x1A6D DUP3 PUSH2 0x1A4E JUMP JUMPDEST DUP5 DUP5 SLOAD PUSH2 0x19D0 JUMP JUMPDEST DUP3 SSTORE POP POP POP POP JUMP JUMPDEST PUSH1 0x0 SWAP1 JUMP JUMPDEST PUSH2 0x1A8A PUSH2 0x1A7D JUMP JUMPDEST PUSH2 0x1A95 DUP2 DUP5 DUP5 PUSH2 0x1A58 JUMP JUMPDEST POP POP POP JUMP JUMPDEST JUMPDEST DUP2 DUP2 LT ISZERO PUSH2 0x1AB9 JUMPI PUSH2 0x1AAE PUSH1 0x0 DUP3 PUSH2 0x1A82 JUMP JUMPDEST PUSH1 0x1 DUP2 ADD SWAP1 POP PUSH2 0x1A9B JUMP JUMPDEST POP POP JUMP JUMPDEST PUSH1 0x1F DUP3 GT ISZERO PUSH2 0x1AFE JUMPI PUSH2 0x1ACF DUP2 PUSH2 0x199E JUMP JUMPDEST PUSH2 0x1AD8 DUP5 PUSH2 0x19B3 JUMP JUMPDEST DUP2 ADD PUSH1 0x20 DUP6 LT ISZERO PUSH2 0x1AE7 JUMPI DUP2 SWAP1 POP JUMPDEST PUSH2 0x1AFB PUSH2 0x1AF3 DUP6 PUSH2 0x19B3 JUMP JUMPDEST DUP4 ADD DUP3 PUSH2 0x1A9A JUMP JUMPDEST POP POP JUMPDEST POP POP POP JUMP JUMPDEST PUSH1 0x0 DUP3 DUP3 SHR SWAP1 POP SWAP3 SWAP2 POP POP JUMP JUMPDEST PUSH1 0x0 PUSH2 0x1B21 PUSH1 0x0 NOT DUP5 PUSH1 0x8 MUL PUSH2 0x1B03 JUMP JUMPDEST NOT DUP1 DUP4 AND SWAP2 POP POP SWAP3 SWAP2 POP POP JUMP JUMPDEST PUSH1 0x0 PUSH2 0x1B3A DUP4 DUP4 PUSH2 0x1B10 JUMP JUMPDEST SWAP2 POP DUP3 PUSH1 0x2 MUL DUP3 OR SWAP1 POP SWAP3 SWAP2 POP POP JUMP JUMPDEST PUSH2 0x1B53 DUP3 PUSH2 0x10D7 JUMP JUMPDEST PUSH8 0xFFFFFFFFFFFFFFFF DUP2 GT ISZERO PUSH2 0x1B6C JUMPI PUSH2 0x1B6B PUSH2 0x13E0 JUMP JUMPDEST JUMPDEST PUSH2 0x1B76 DUP3 SLOAD PUSH2 0x17C3 JUMP JUMPDEST PUSH2 0x1B81 DUP3 DUP3 DUP6 PUSH2 0x1ABD JUMP JUMPDEST PUSH1 0x0 PUSH1 0x20 SWAP1 POP PUSH1 0x1F DUP4 GT PUSH1 0x1 DUP2 EQ PUSH2 0x1BB4 JUMPI PUSH1 0x0 DUP5 ISZERO PUSH2 0x1BA2 JUMPI DUP3 DUP8 ADD MLOAD SWAP1 POP JUMPDEST PUSH2 0x1BAC DUP6 DUP3 PUSH2 0x1B2E JUMP JUMPDEST DUP7 SSTORE POP PUSH2 0x1C14 JUMP JUMPDEST PUSH1 0x1F NOT DUP5 AND PUSH2 0x1BC2 DUP7 PUSH2 0x199E JUMP JUMPDEST PUSH1 0x0 JUMPDEST DUP3 DUP2 LT ISZERO PUSH2 0x1BEA JUMPI DUP5 DUP10 ADD MLOAD DUP3 SSTORE PUSH1 0x1 DUP3 ADD SWAP2 POP PUSH1 0x20 DUP6 ADD SWAP5 POP PUSH1 0x20 DUP2 ADD SWAP1 POP PUSH2 0x1BC5 JUMP JUMPDEST DUP7 DUP4 LT ISZERO PUSH2 0x1C07 JUMPI DUP5 DUP10 ADD MLOAD PUSH2 0x1C03 PUSH1 0x1F DUP10 AND DUP3 PUSH2 0x1B10 JUMP JUMPDEST DUP4 SSTORE POP JUMPDEST PUSH1 0x1 PUSH1 0x2 DUP9 MUL ADD DUP9 SSTORE POP POP POP JUMPDEST POP POP POP POP POP POP JUMP JUMPDEST PUSH1 0x0 PUSH1 0x60 DUP3 ADD SWAP1 POP PUSH2 0x1C31 PUSH1 0x0 DUP4 ADD DUP7 PUSH2 0x176A JUMP JUMPDEST PUSH2 0x1C3E PUSH1 0x20 DUP4 ADD DUP6 PUSH2 0x176A JUMP JUMPDEST PUSH2 0x1C4B PUSH1 0x40 DUP4 ADD DUP5 PUSH2 0x15F6 JUMP JUMPDEST SWAP5 SWAP4 POP POP POP POP JUMP JUMPDEST PUSH32 0x5468652066726F6D206164647265737320646F6573206E6F74206F776E207468 PUSH1 0x0 DUP3 ADD MSTORE PUSH32 0x6520746F6B656E00000000000000000000000000000000000000000000000000 PUSH1 0x20 DUP3 ADD MSTORE POP JUMP JUMPDEST PUSH1 0x0 PUSH2 0x1CAF PUSH1 0x27 DUP4 PUSH2 0x1921 JUMP JUMPDEST SWAP2 POP PUSH2 0x1CBA DUP3 PUSH2 0x1C53 JUMP JUMPDEST PUSH1 0x40 DUP3 ADD SWAP1 POP SWAP2 SWAP1 POP JUMP JUMPDEST PUSH1 0x0 PUSH1 0x20 DUP3 ADD SWAP1 POP DUP2 DUP2 SUB PUSH1 0x0 DUP4 ADD MSTORE PUSH2 0x1CDE DUP2 PUSH2 0x1CA2 JUMP JUMPDEST SWAP1 POP SWAP2 SWAP1 POP JUMP JUMPDEST PUSH32 0x43616E6E6F74207472616E7366657220746F20746865207A65726F2061646472 PUSH1 0x0 DUP3 ADD MSTORE PUSH32 0x6573730000000000000000000000000000000000000000000000000000000000 PUSH1 0x20 DUP3 ADD MSTORE POP JUMP JUMPDEST PUSH1 0x0 PUSH2 0x1D41 PUSH1 0x23 DUP4 PUSH2 0x1921 JUMP JUMPDEST SWAP2 POP PUSH2 0x1D4C DUP3 PUSH2 0x1CE5 JUMP JUMPDEST PUSH1 0x40 DUP3 ADD SWAP1 POP SWAP2 SWAP1 POP JUMP JUMPDEST PUSH1 0x0 PUSH1 0x20 DUP3 ADD SWAP1 POP DUP2 DUP2 SUB PUSH1 0x0 DUP4 ADD MSTORE PUSH2 0x1D70 DUP2 PUSH2 0x1D34 JUMP JUMPDEST SWAP1 POP SWAP2 SWAP1 POP JUMP JUMPDEST PUSH1 0x0 PUSH2 0x1D82 DUP3 PUSH2 0x10AF JUMP JUMPDEST SWAP2 POP PUSH2 0x1D8D DUP4 PUSH2 0x10AF JUMP JUMPDEST SWAP3 POP DUP3 DUP3 SUB SWAP1 POP DUP2 DUP2 GT ISZERO PUSH2 0x1DA5 JUMPI PUSH2 0x1DA4 PUSH2 0x1823 JUMP JUMPDEST JUMPDEST SWAP3 SWAP2 POP POP JUMP INVALID LOG2 PUSH5 0x6970667358 0x22 SLT KECCAK256 SWAP11 BALANCE 0xB7 CALLDATACOPY INVALID 0xD9 0xF9 TSTORE SWAP11 0x4C REVERT 0xFB 0xBF AND 0x4B EXTCODECOPY CALLDATASIZE 0xF8 PUSH21 0xDB2454697FB0E6AA0AAE153B0B64736F6C63430008 XOR STOP CALLER "},"methodIdentifiers":{"_balanceOf(address)":"cca3e832","_getContractAddress()":"ed499474","_getTokens(address)":"3031afb8","_isExists(string,string)":"81d19e35","_mint(string,string,string,string,address)":"42408284","_ownerOf(uint256)":"38350541","_transferFrom(address,address,uint256)":"cb712535","getLength(string)":"6981b5f4"}}}}}